:020000040800F2
:10000000B0240020750200080D3500089134000866
:1000100009350008DD050008D15B0008000000007C
:100020000000000000000000000000002135000872
:1000300001080008000000001D35000825350008F3
:100040008F0200088F0200088F0200088F0200084C
:100050008F0200088F0200088F0200088F0200083C
:100060008F0200088F0200088F0200088F0200082C
:100070008F0200088F0200088F0200088F0200081C
:100080008F0200088F0200088F02000800000000A5
:100090000000000000000000000000008F020008C7
:1000A0008F020008ED3500088F0200088F0200085B
:1000B000F93500088F0200088F0200088F0200083F
:1000C0008F0200088F0200088F0200088F020008CC
:1000D0008F0200088F0200088F0200080000000055
:1000E0008F0200088F0200088F0200080000000045
:1000F0000000000000000000000000008F02000867
:10010000000000008F0200088F0200088F02000824
:1001100000000000000000000000000000000000DF
:100120008F0200088F0200088F0200088F0200086B
:100130008F02000800000000000000000000000026
:100140000000000000000000000000001135000861
:10015000FD0600088F0200088F0200088F020008C9
:100160008F0200088F02000800000000000000005D
:10017000000000000000000000000000000000007F
:10018000000000008F0200080000000000000000D6
:100190008F02000800F002F800F05CF80AA090E876
:1001A000000C82448344AAF10107DA4501D100F032
:1001B00051F8AFF2090EBAE80F0013F0010F18BFA3
:1001C000FB1A43F001031847885E0000A85E000098
:1001D0000A444FF0000C10F8013B13F0070408BF6D
:1001E00010F8014B1D1108BF10F8015B641E05D00B
:1001F00010F8016B641E01F8016BF9D113F0080FC0
:100200001EBF10F8014BAD1C0C1B09D16D1E58BF51
:1002100001F801CBFAD505E014F8016B01F8016B88
:100220006D1EF9D59142D6D37047000000230024FB
:1002300000250026103A28BF78C1FBD8520728BFF6
:1002400030C148BF0B6070471FB505F0CFFE1FBD22
:1002500010B510BD00F088F91146FFF7F5FF05F065
:10026000B9FC00F0A6F903B4FFF7F2FF03BC00F0FD
:10027000ADF900000948804709480047FEE7FEE75E
:10028000FEE7FEE7FEE7FEE7FEE7FEE7FEE7FEE746
:1002900004480549054A064B70470000D935000857
:1002A00095010008B01E0020B0240020B0200020DE
:1002B000B020002053EA020C00F069802DE9F04BD9
:1002C0004FF00006002B1FBFB3FA83F503FA05F4C5
:1002D00024FA05F65E4012BF1643B2FA82F502FA1E
:1002E00005F4C5F120051EBF22FA05FC44EA0C0402
:1002F000203556EA044C4FEA144418BF641C4FF0F2
:1003000000084FF00009904271EB030C39D300292B
:1003100019BFB1FA81F701FA07F6B0FA80F700FACF
:1003200007F6C7F120071EBF20FA07FC46EA0C06B5
:100330002037B6FBF4FCA7EB0507103F07F01F0BB7
:10034000CBF120062CFA06F60CFA0BFB44BFB346A1
:100350000026202FA4BF5E464FF0000B5BEA060C80
:1003600008BF4FF0010B19EB0B0948EB0608ABFB7C
:10037000027C06FB02CC0BFB03CCC01B71EB0C0117
:10038000C1E70B46024641464846BDE8F08B13B52F
:10039000084318BF4FF0FF300146AFF30080BDE8BF
:1003A0001C40704710B5431C02E010F8011B71B1EE
:1003B0008107FAD14FF0013202C88C1A8C4314EA3B
:1003C000C211F9D0C01A0A0603D0C01E10BDC01A4F
:1003D00010BD0A0401D0801E10BD0902FCD0401ED1
:1003E00010BD032A40F2308010F0030C00F015809D
:1003F00011F8013BBCF1020F624498BF11F801CB28
:1004000000F8013B38BF11F8013BA2F1040298BF8C
:1004100000F801CB38BF00F8013B11F0030300F0F6
:100420002580083AC0F0088051F8043B083A51F89A
:1004300004CBA0E80810F5E7121D5CBF51F8043B9F
:1004400040F8043BAFF30080D20724BF11F8013B12
:1004500011F801CB48BF11F8012B24BF00F8013B74
:1004600000F801CB48BF00F8012B704710B5203AC7
:10047000C0F00B80B1E81850A0E81850B1E818504F
:10048000A0E81850203ABFF4F5AF5FEA027C24BF21
:10049000B1E81850A0E8185044BF18C918C0BDE80A
:1004A00010405FEA827C24BF51F8043B40F8043BD3
:1004B00008BF7047D20728BF31F8023B48BF11F888
:1004C000012B28BF20F8023B48BF00F8012B7047E2
:1004D0004FF000020429C0F0128010F0030C00F06D
:1004E0001B80CCF1040CBCF1020F18BF00F8012BEB
:1004F000A8BF20F8022BA1EB0C0100F00DB85FEAB9
:10050000C17C24BF00F8012B00F8012B48BF00F884
:10051000012B70474FF0000200B5134694469646F3
:10052000203922BFA0E80C50A0E80C50B1F1200106
:10053000BFF4F7AF090728BFA0E80C5048BF0CC0B4
:100540005DF804EB890028BF40F8042B08BF704712
:1005500048BF20F8022B11F0804F18BF00F8012B84
:100560007047704770477047754600F02BF8AE46ED
:1005700005006946534620F00700854618B020B5AF
:10058000FFF786FEBDE820404FF000064FF0000761
:100590004FF000084FF0000BAC46ACE8C009ACE8E7
:1005A000C009ACE8C009ACE8C00921F007018D46DC
:1005B000704710B50446AFF300802046BDE81040F8
:1005C000FFF751BE0048704700090020014918207C
:1005D000ABBEFEE72600020070470000FEE7000009
:1005E000002070470020704710B541F21C64C2F231
:1005F000000441F21C21C2F200012046002203F057
:100600004DFA41F2DC11C2F20001204603F038FA43
:10061000002010BDF0B581B041F21C650446C2F265
:1006200000050E462846214603F02AFA284603F024
:1006300001FA40F664102178C2F20000627801707D
:1006400040F66310C2F20000A378027040F6621018
:10065000C2F20000E778037040F66110C2F20000B9
:10066000077040F6B430C2F2000000210160367815
:1006700021463246FFF7B5FE2078492818D140F6CA
:10068000F800C2F2000007683846FFF78BFED5F885
:10069000BC12D1F8141259B941F21C65C2F200051E
:1006A00082B22846394603F0F9F9284603F086FA63
:1006B00020463146FFF70CFF002001B0F0BD0000DE
:1006C0000020704710B541F21C62C2F20002D2F85D
:1006D000BC22D2F81432002B1CBF012010BD41F205
:1006E0001C64C2F200040A460146204603F0D6F913
:1006F0002046BDE8104003F061BA00002DE9F04F3C
:1007000081B040F60000C4F202004FF40051012213
:1007100000F048FB41F6F800C2F2000000F078F863
:1007200040F6FC00C2F20000016840F66010C2F220
:1007300000008068CA0001EB410E40F6B836009216
:10074000C1EBC1094FEA4E0A01EB810B8B004A0055
:100750000024C2F2000600BF0F18C7F3464740F658
:10076000B41556F82770C2F2000505EB0408C8F866
:10077000007117180EEB0005C7F34647C5F3464551
:1007800056F8277056F825502034C8E941751F18CF
:100790000BEB0005C7F34647C5F3464556F82770EF
:1007A00056F82550B4F5807FC8E943750AEB000779
:1007B00009EB0005C7F34647C5F3464556F82770D1
:1007C00056F82550C8E94575009F3844C0F3464C9B
:1007D00056F82C50C8F81C51BED140F66013C2F236
:1007E0000003986040F60000C4F202004FF400518C
:1007F000002283F800C001B0BDE8F04F00F0D2BA8B
:1008000070470000EFF3108072B600BFFEE70000F3
:10081000F0B581B004460020009040F22460C2F29E
:1008200000000268D4E9166048F2B5133768082161
:10083000C1F64E3381403942A2FB03250CD0226819
:1008400013685B0708D5136823F004031360B160D5
:10085000616D41F00101616501218140394208D09B
:1008600022685269120604D5B160616D41F002013F
:10087000616504218140394208D0226812689207DC
:1008800004D5B160616D41F00401616510218140C2
:10089000394217D020680268120713D5B160026888
:1008A0000168520308D4C90508D4016821F0080181
:1008B0000160216C21B905E008033FD4216C09B126
:1008C00020468847E16D202000FA01F23A4241D0EB
:1008D00020680368DB063DD5B26094F835300268C5
:1008E000052B1BD122F016020260426922F0800221
:1008F0004261226C0AB9A26C1AB1026822F00802A5
:1009000002603F208840B060012084F83500216DEE
:100910000020002984F8340052D157E001685203C6
:1009200010D4C90512D4016821F010010160012022
:1009300084F83500002084F8340007E0A16C002919
:10094000BED1BFE7080301D4616C00E0E16B09B1DF
:1009500020468847606DC8B3606DC0072ED0052063
:1009600084F835002068A90A026822F001020260BA
:10097000009A01328A4200921AD80268D20717D030
:10098000009A01328A42009212D80268D2070FD030
:10099000009A01328A4200920AD80268D20707D030
:1009A000009A01328A42009202D80268D207DFD14F
:1009B000012084F83500002084F83400E16C29B16E
:1009C000204601B0BDE8F040084700BF01B0F0BDCF
:1009D0002DE9F041044600F0EBF9ECB105460220A8
:1009E00084F835000020216884F83400086820F07D
:1009F0000100086021680868C00711D000F0D8F92C
:100A0000401B0528F6D9032520230320636584F8BD
:100A10003550BDE8F08100BF0120BDE8F08100BF86
:100A2000086848F23F02CFF21002D4E9013500EA2B
:100A3000020C04F10C0898E8C10143EA0C032B43B3
:100A40001843D4E9072E304338431043626A40EA22
:100A50000E00042A40EA08031CD1206BD4E90A2EB8
:100A600040EA0E00184308604869BEF1000F20F00C
:100A7000030040EA020040F0040C11D0B8F5005F1A
:100A800036D0B8F1000F45D1022A46D0012A3BD01A
:100A900032B942E00B60486920F0070040EA020CDE
:100AA00001F0F8004AF6AB221038CAF6AA22A0FBE1
:100AB00002231A0946F23803C0F600039A5C40F29A
:100AC000FF335F284FF03F00C1F814C021EA030153
:100AD00000FA02F088BF0431C4E9161288600023CE
:100AE00001250020636584F83550BDE8F08100BF22
:100AF000032AD5D8012540230120DFE802F0030EA8
:100B0000030500BF82E700BFAEF1C070B0FA80F00D
:100B1000400904E0032A04D3C2D1CEF300600028C8
:100B2000BED0012540230120636584F83550BDE81F
:100B3000F081000070B590F834C0BCF1010F46D0D0
:100B40004FF0010C80F834C0D0F858E090F835C070
:100B5000BCF1010F38D14FF0020C80F835C04FF0D6
:100B6000000CC0F854C0D0F800C08468056CC06D9B
:100B7000DCF80060402C26F48026CCF80060CCF82D
:100B800004300B4604BF13460A463F2101FA00F029
:100B9000CCF80830CCF80C20CEF80800DCF80000C7
:100BA00040F01600CCF800002DB1DCF8000040F059
:100BB0000800CCF80000DCF8000040F00100CCF8A0
:100BC0000000002070BD00BF002180F8341002201A
:100BD00070BD0000B0B5044600F0EAF8054640F2EA
:100BE0000000C2F200000078611C18BF044400BF7E
:100BF00000F0DEF8401BA042FAD3B0BD2DE9F04F63
:100C000082B000F13E4241F2000502F1FF77C4F2EA
:100C10000205072243F6004E4FEAB726A84208BF56
:100C20000422C4F2010E042E38BF4FEAB722012578
:100C3000002600274FF00008009208E008F10108A4
:100C40000437B8F1100F06F1020600F0A7800C6817
:100C500005FA08F914EA090FF0D0D1F804B003221C
:100C60000BF0030CACF10104B240012C6FEA020A54
:100C700010D88268CC6802EA0A02B440224382603B
:100C80004268CBF3001422EA090204FA08F4224372
:100C9000426005E0BCF1030F02D14FF0030C20E0ED
:100CA000C2688C6802EA0A02B4402243BCF1020F17
:100CB000C26016D16FF0030202EA58020244D2F871
:100CC00020C007F01C050F230C69AB402CEA03037E
:100CD00004FA05F52B431362D1F804B001250BF09B
:100CE000030C02680CFA06F302EA0A021A431BF428
:100CF000403F0260A2D0002243F644030192C4F2B6
:100D000002031A684FF6084C42F480421A601A68CF
:100D1000CFF6FF7C02F480420192019A28F0030290
:100D2000724452F80C3007F00C050F24AC40A3437A
:100D3000009C04FA05F52B4342F80C30DEF808203D
:100D40004B6842EA090543F60C4CDC0258BF22EA24
:100D50000905CEF80850C4F2010CDCF800209C0212
:100D600042EA090558BF22EA0905CCF80050DEF82E
:100D700004209C0342EA090558BF22EA0905CEF87F
:100D80000450DEF80020DB0342EA090558BF22EADE
:100D90000905CEF80050012550E700BF02B0BDE8BC
:100DA000F08F0000002A08BF09048161704700002D
:100DB00041F6AC60C2F200000068704740F20000EB
:100DC00041F6AC61C2F20000C2F2000100780A688C
:100DD000104408607047000080B543F60040C4F23C
:100DE0000200016841F400710160016841F4806112
:100DF0000160016841F480710160032000F088F80F
:100E00000F2000F005F800F027F8002080BD00005A
:100E100070B540F20006C2F2000640F2246132785A
:100E2000C2F200014FF47A730968B3FBF2F2044690
:100E3000B1FBF2F1084601F0C7FA0F2C4FF00105A3
:100E400008D838B94FF0FF3021460022002500F0C5
:100E500033F87460284670BD82B0002043F640012C
:100E60000190C4F202014A6842F480424A604A6832
:100E700002F480420192019A0090086840F080508C
:100E80000860086800F080500090009802B0704739
:100E9000002848BF7047C1B200F01F00012202FACB
:100EA00000F04EF20012CEF2000242EAD10121F02F
:100EB000030108607047000010B54EF60C5CCEF2DE
:100EC000000CDCF80030C3F3022E8EF00704042C73
:100ED00028BF0424BEF103034FF0FF3E0EFA04F4D2
:100EE00038BF0023A14399400EFA03F39A431143FC
:100EF00000F00F0200F160430901043A03F5644376
:100F00006244002848BF02F10C03197010BD0000B4
:100F10004EF60C51CEF200010A684FF6FF031A405C
:100F200060F30A2242F0806040F0FD700860704774
:100F30007047000002680020516270472DE9F043BD
:100F4000D0F80090D9F82400A1B1D9F82830B1F137
:100F5000010800EB13435DD0A8F10100C0B20328E3
:100F600008F0030C0ED24FF0010E0027BCF1000F69
:100F700033D14FE040EA0240C9F828000020BDE824
:100F8000F08300BF08F0FC0E09F1F404002009F51D
:100F9000827500BF54F8107F064603EB174046F0F9
:100FA0000103DBB246F0020755F82330FFB255F8D3
:100FB000277000EB134000EB174346F00300C0B26C
:100FC00055F82010301DC7B2774503EB1143E1D12E
:100FD00006F1050EBCF1000F1CD009EB8700D0F81C
:100FE0000401BCF1010F03EB104313D05FFA8EF044
:100FF00009EB8000D0F80401BCF1020F03EB1043B1
:1010000008D00EF10100C0B209EB8000D0F8040155
:1010100003EB104343EA024009EB8801C1F80401E5
:101020000020BDE8F0830000D0F8080503F0DEB82A
:1010300001EBC102D0F8083500EB8200C26C184603
:1010400003F03CB801EBC102D0F8083500EB820098
:10105000D0F88C22184603F08DB80000D0F80805AF
:1010600003F0C6B810B5044648B2B0F1FF3F01F036
:101070000F0000EBC00104EB810205DD02F51F71DA
:10108000002382F87D3204E0012302F13C0182F862
:101090003D3094F8BC240870012A04BF022010BD22
:1010A0002068012284F8BC2403F062FE002084F84A
:1010B000BC0410BDB0B54268044601F00F00824286
:1010C0003CBF0120B0BD49B2B1F1FF3F0ADD00EBEA
:1010D000C00104EB810202F51F71002382F87D320A
:1010E00009E000BF00EBC00104EB8102012302F123
:1010F0003C0182F83D3094F8BC240025012A8D7013
:10110000087004BF0220B0BD2068012284F8BC240E
:1011100004F090F9284684F8BC54B0BD01F00F01EA
:1011200001EBC10100EB8100D0F89C027047000088
:1011300070B5064648B2B0F1FF3F01F00F0000EB7A
:10114000C00107DD06EB810404F51F71002584F85A
:101150007D5206E006EB810C01240CF13C018CF879
:101160003D404D780870002DCA600B7118BF088192
:10117000022B04BF0020487196F8BC04012804BF6C
:10118000022070BD3068012286F8BC2403F0AEFC5A
:10119000002086F8BC0470BD80B501F00F0C0CEB8C
:1011A000CC0100EB810ECEF894320023CEF89C32B5
:1011B0008EF87D320369CEF88C22012B8EF87CC22A
:1011C00008BFCEF8902200680EF51F71DAB2BCF1AC
:1011D000000F03D004F078F9002080BD04F07EF801
:1011E000002080BDB0B50446406801F00F0585427F
:1011F00084BF0120B0BD48B2B0F1FF3F0ADD01EB72
:10120000C10004EB800000F51F71002280F87D22F0
:1012100009E000BF05EBC50004EB8000012200F1EE
:101220003C0180F83D2094F8BC04012201288A701A
:101230000D7004BF0220B0BD206884F8BC2404F007
:1012400023F91DB1002084F8BC04B0BD2068217CC6
:1012500004F2C44204F0C0F8002084F8BC04B0BD1D
:1012600010B501F00F0C0CEBCC0100EB810E7146B8
:1012700001F83CCF8B6100230B62036901244C70A1
:10128000012B0A6108BFCEF850200068DAB2BCF129
:10129000000F03D004F018F9002010BD04F01EF870
:1012A000002010BD2DE9F04F89B00568064628469C
:1012B00004F0FCFA10B109B0BDE8F08F306804F01A
:1012C00023FB0028F7D0D5F80808C0F30D213068BB
:1012D000C6F8FC1404F018FB01463068890703D5F2
:1012E000416901F00201416105F5006704F00CFB62
:1012F00001463068C906089604953CD5816921F0FD
:10130000100181612C6AC4F34340062804F00F05E4
:101310001AD0022829D147F6F07014EA000824D028
:1013200005EBC50006EB8009D9F88C124FEA1814BA
:101330000498224604F0ECFAD9F88C0200EB18105D
:10134000C9F88C0208E000BF049806F2C4410822E4
:1013500004F0DEFAC4F30A1405EBC50006EB8000C6
:10136000D0F89C122144C0F89C123068816941F089
:1013700010018161049D039704F0C6FA000340F157
:10138000EB800898006804F09DFA002800F0E480E3
:10139000064608984FF4306400F2C44100F52778FF
:1013A0004FF0000B079118E02819022181605FEAD5
:1013B0008A6042BF2819202181605FEA8A4042BFCB
:1013C00028194FF4005181600BF1010B760804F1EC
:1013D000200408F1240800F0BF80F007F4D008983A
:1013E0005FFA8BF90068494604F086FA8246C00726
:1013F00062D0281901218160089F38682118036C88
:101400008A683F69012F29D1170735D4970600F163
:101410009B8012F0280F4FD143F20B07C4F654778C
:10142000BB4202D312F400422FD158F8042C0969B0
:10143000BBF1000F6FF3DF41A2EB0101C8F8001010
:1014400035D1089BD3F89422002A00F08380D3F88A
:101450008C020844C3F88C0229E000BF43F20B075A
:10146000C4F65477FF37BB4216D110040DD4900652
:1014700044BF202088601AE043F20B00C4F6547089
:10148000834219D312F4004016D04FF40040886014
:101490005FEA0A7013D437E0BBF1000F07D1089957
:1014A000D1F8941219B90021079A03F095FF089812
:1014B0004946FFF7C7FD00BF5FEA0A7024D5281927
:1014C00008218160089843F20B020068C4F6547248
:1014D000056C20448168571EBD4205D911F40041B6
:1014E0001CBF4FF400418160089800F085FCBD42AC
:1014F000049D09D908980069012805D10898079A20
:101500000068012103F068FF5FEACA6042BF281942
:10151000102181605FEA8A707FF549AF6869000633
:1015200004D50399486840F48060486018F81D0CA1
:1015300001287FF439AF002008F81D0C08984946AF
:1015400000F048FB30E700BF202088605FEA0A70A7
:10155000B5D4D9E70121A7E7DDF820B0DBF800001A
:1015600004F0D2F9400340F1D580DBF8000004F02C
:10157000A1F9002800F0CE80824605F510600290A7
:101580000BF2C4400027019006E000BF5FEA5A0A50
:1015900007F1010700F0BE805FEACA70F6D0DBF801
:1015A0000000F9B2079104F095F9029E0446C007C5
:1015B00026D0039A07F00F00516B012303FA00F0C5
:1015C00021EA0000506306EB47108360DBF810004F
:1015D000012811D107EBC7000BEB8000D0E91212F4
:1015E0001144C16447B9DBF8540028B9DBF80000A6
:1015F000019A012103F0F0FE07995846FFF718FD04
:10160000200742BF06EB471008218160E00642BF79
:1016100006EB471010218160600642BF06EB4710C1
:1016200040218160A00715D52846394604F0D4F83A
:1016300007EBC7000BEB800010F83F1F012905D115
:10164000002101700799584600F0C0FA06EB4710D8
:1016500002218160200699D507EBC7000BEB8002C1
:10166000914659F8541FC84658F8080F81428DD347
:10167000DBF8006093465BF8485F0B1AAB4238BF5B
:101680001D46069606EB4713D3F818C905F1030E5D
:101690001FFA8CF5B5EB9E0F28D303F5106102F10C
:1016A0004C050591D9F8001081421FD9DBF80040A4
:1016B000089A081AA0422968167C38BF0446DDE95A
:1016C0000602A3B2009604F04DFA2868D8F800107C
:1016D0002044286008190599C8F800008969E21CAF
:1016E00089B2B1EB920FDDD2D9F80010DDF820B04D
:1016F000049D81423FF64AAF069B07F00F00D3F8E6
:101700003418012202FA00F021EA0000C3F834087C
:101710003CE700BFDBF8000004F0F6F8002825D411
:10172000DBF80000DDF80C8004F0EEF800053ED494
:10173000DBF8000004F0E8F8C00449D5D8F804004C
:10174000102120F00100C8F80400DBF8000004F0CC
:1017500043F8DBF80400002800F0F780411E03295D
:1017600000F0030C38D20021A2E000BFDDF80C80AD
:10177000D8F8040020F00100C8F804009BF8F40435
:10178000012807D100208BF8F40458460021FFF708
:10179000CFFB02E0584600F013FBDBF80000416984
:1017A00001F00041416104F0AFF80005C0D5D8F860
:1017B0000800C00702D0584600F046FBDBF80000E6
:1017C000416901F40061416104F09EF8C004B5D4A0
:1017D000DBF80000EDE000BF20F0030E05F53663F6
:1017E0004FF6A0564FF6C0554FF6E0544FF6006046
:1017F00000214FF67F37CFF6FF76CFF6FF75CFF695
:10180000FF74CFF6FF7000BFA3F5187297609A5966
:10181000043122F400129A5143F8587C53F8602C9A
:101820008E4522F4001243F8602C53F8602C42F0ED
:10183000006243F8602CA3F5107297605A5922F4A5
:1018400000125A5143F8387C53F8402C22F400120D
:1018500043F8402C53F8402C42F0006243F8402CEF
:10186000A3F5087297601A5922F400121A5143F82E
:10187000187C53F8202C22F4001243F8202C53F843
:10188000202C42F0006243F8202CA3F500729760F0
:101890001A5822F400121A509F601A6822F400129B
:1018A0001A601A6842F000621A6003F18003ABD13B
:1018B000049DBCF1000F48D005F5106000EB41120B
:1018C0004FF67F334F019360C65905F5306226F419
:1018D0000016C65102EB4116B360D659BCF1010F98
:1018E00026F40016D651D65946F00066D6512CD0B3
:1018F0004F1C00EB47157E01AB60855902EB471783
:1019000025F400158551BB609359BCF1020F23F4F7
:1019100000139351935943F00063935115D0023152
:1019200000EB41174FF67F364B01BE60C75827F4D6
:101930000017C75002EB41108660D05820F4001009
:10194000D050D05840F00060D050D8F81C0040F083
:101950000110C8F81C00DBF8300048B1D8F884004A
:1019600040F00B00C8F8840008F1440009E000BF13
:10197000D8F8140042F22B010843C8F8140008F10B
:10198000100001680BF2C44241F00B010160D8F86D
:10199000000020F4FE60C8F80000DBF800009BF8AF
:1019A000101003F019FDDBF80000416901F48051CB
:1019B000416103F0A9FF0146DBF8000089041AD554
:1019C00003F0D6F8DBF8000003F062FFDBF800401C
:1019D000CBF80C0000F002FB9BF80C2001462046DF
:1019E00004F030F8584600F0D9F9DBF800004169FE
:1019F00001F40051416103F087FF000706D4DBF8D2
:101A0000000003F081FF00060DD435E0584600F0D9
:101A1000DBF9DBF80000416901F00801416103F0E6
:101A200073FF000628D50499886920F0800088613A
:101A3000DBF8040002281FD3012440F2A32504E0B0
:101A40000134844205F1240516D21BF80510012942
:101A5000F6D104F00F0000EBC0000BEB8002200673
:101A6000DBF8000002F13C0158BF02F51F7103F0E2
:101A700023FEDBF80400E3E7DBF8000003F044FF9B
:101A8000C0024FD4DBF8000003F03EFF049D80024B
:101A900040F17E80DBF8041002292AD305F532607C
:101AA00001390BF52972012305E000BF203001390F
:101AB00002F124021DD007681678012EF6D1B7F185
:101AC000FF3FF3DCDBF8FC6407F4803706F0010627
:101AD000B742EBD102F8013CAF6947F08007AF6134
:101AE0006F693F06E2D4D8F8040040F40070C8F8EB
:101AF0000400DBF80000416901F40011416103F0CA
:101B000003FF40004AD55846FFF78EFADBF8000085
:101B1000416901F08041416103F0F6FE40077FF525
:101B2000CAAB42E0DBF80400022825D304990BF18C
:101B3000640501F512640126012705E00137203410
:101B4000874205F1240517D221682A78012AF5D1A8
:101B5000B1F1FF3FF2DC07F00F0000EBC0000BEB30
:101B60008001DBF800003C3105F8016C03F0A4FDB6
:101B7000DBF80400E2E700BFDBF80000416901F494
:101B80008011416103F0C0FE049D80023FF582AFE9
:101B9000DBF8000003F0B8FE4000B4D4DBF800002E
:101BA00003F0B2FE40077FF586ABDBF80000446827
:101BB000610704D55846FFF751FADBF80000416889
:101BC0002143416009B0BDE8F08F0000D0F808055E
:101BD00002F06CBBD0F8080502F07CBB2DE9F04F99
:101BE0008BB0002800F086800446056890F8BD049C
:101BF00028B9002084F8BC04204600F08FF80320A8
:101C000084F8BD04E86BC0055CBF0020206120683B
:101C100003F05CFB206804F11C0A0A90D4E90C5024
:101C200004F1040E9AE8C0079EE80E58CDE908506A
:101C300003A880E8C0030A988DE80058CDF81CA0DE
:101C400002F0A6FF002852D120680021002503F0F1
:101C5000B5FE616861B301200023002203EBC303DA
:101C600004EB830787F83C20D3B20132A7F8443055
:101C7000D3B2994287F83D0087F84050C7E9125522
:101C80007D65EBD800200023002200BF03EBC303D7
:101C900004EB830787F87C220132D3B2994287F89C
:101CA0007D0287F88002C7E9A200C7F89402EDD848
:101CB000A06822680A90D4E90C5004F1140E04F1D3
:101CC000240AD4E903379EE840589AE80007CDE992
:101CD000085002A880E8005810460A9ACDE900761C
:101CE000CDE90589CDF81CA003F0A6F840B102208B
:101CF00084F8BD04012528460BB0BDE8F08F00BF75
:101D00000025012084F8385084F8BD04206803F0D1
:101D100083F828460BB0BDE8F08F0000B0B586B060
:101D20000068B0F1A04F01D006B0B0BD002543F669
:101D300030040195C4F20204206801A940F00100BA
:101D40002060206800F00100019001984FF4C0501D
:101D500001900220CDE90205032004900A2005909D
:101D60000020C4F20200FEF749FF6068002140F045
:101D70008000606000956069002240F480406061EE
:101D8000606900F48040009000984320FFF794F8C9
:101D90004320FFF77DF806B0B0BD000010B5044643
:101DA000C068022818BFFEF72DFDD4F808050121F0
:101DB00002F016FBD4F80805BDE8104002F0C4BAE2
:101DC000D0F8080502F0F4BAD0F8080502F0FABA23
:101DD00010B5044690F8BC04012804BF022010BDD1
:101DE000012084F8BC0484F83810206803F018FE41
:101DF000002084F8BC0410BDD0F8082500F2C441CE
:101E0000104602F003BB000010B5044690F8BC0475
:101E1000012804BF022010BDA16A20680122012907
:101E200084F8BC2406D1A169012903D0816B41F457
:101E30008031816303F0C8FC206802F0DDFF0020E0
:101E400084F8BC0410BD000010B50446D0F80805A5
:101E500002F032FB2068D0F8001E41F00101C0F80A
:101E6000001E206A002808BF10BD4EF61050CEF2AA
:101E70000000016841F00601016010BD2DE9F0414C
:101E8000002800F08B8043F60808C4F202080446DC
:101E9000D8F8F8030D4600F00700884207D288F80A
:101EA000F853D8F8F80300F00700A84276D120686C
:101EB000810717D5410705D5D8F8001041F4E05146
:101EC000C8F80010010705D5D8F8001041F46041AA
:101ED000C8F80010D8F80010A26821F0F0011143F2
:101EE000C8F80010C0073FD1D8F8F80300F0070089
:101EF000A84207D988F8F853D8F8F80300F007008B
:101F0000A8424BD12068410707D5D8F80010E268F5
:101F100021F4E0511143C8F80010000708D5D8F8A3
:101F20000000216920F4604040EAC100C8F80000C8
:101F300000F05AF8D8F8001046F20602C1F3031177
:101F4000C0F60002515C40F2246220FA01F140F236
:101F50000400C2F200000068C2F200021160FEF745
:101F600057FF0020BDE8F0816068811E022907D27A
:101F700058F8081C89015CBF0120BDE8F08111E020
:101F8000012807D158F8081C89035CBF0120BDE86F
:101F9000F08107E058F8081C890703D40120BDE848
:101FA000F08100BFD8F8001021F003010843C8F801
:101FB0000000FEF7FDFE064641F28837D8F8000023
:101FC000616800F00C00B0EB810F8DD0FEF7F0FEE1
:101FD000801BB842F2D90320BDE8F08140F22460B2
:101FE000C2F200000068704710B543F60404C4F262
:101FF0000204606800F00C0008280BD0042819BF08
:1020000042F20040C0F2F40047F64000C0F27D10FA
:1020100010BD00BF206821682368490247F64001CF
:10202000C0F27D1100F03F02C3F388105CBF42F2A2
:102030000041C0F2F401A1FB00010023FEF73AF9D0
:1020400021680222C1F3014102EB4101B0FBF1F032
:1020500010BD00002DE9F04182B0002868D0044690
:10206000007843F60006C007C4F202060BD0B06841
:1020700000F00C00042840F09F803068800302D5F7
:102080006068002854D0207880071AD5B06810F016
:102090000C0F09D0B06800F00C00082840F0A680B2
:1020A0007068400200F1A2803068800702D5E068C5
:1020B00001283DD13068216920F0F80040EAC100D4
:1020C00030602078000737D4207840074CD4A569C9
:1020D00055B3B06800F00C00082840F0BB80012D1B
:1020E00026D07068E16900F480028A4220D1216A1A
:1020F00000F03F028A421BD147F6C071626A01407C
:10210000B1EB821F14D1A16A4FF6FF73C903994343
:1021100000F44032A1F580318A4209D1E16A00F031
:102120007060B0EB016F03D1002002B0BDE8F08118
:10213000012002B0BDE8F0816069002840F2000093
:10214000C4F2472076D00121C0F8801EFEF730FE91
:10215000054600BF706F8007B6D4FEF729FE401B0E
:102160000228F7D9DDE000BF306C10F080580AD1AA
:1021700000200190306C40F080503064306C00F0F2
:1021800080500190019847F20007C4F200073868B8
:10219000C00541D4386840F480703860FEF708FE0E
:1021A000054600BF3868C00536D4FEF701FE401B67
:1021B0000228F7D9B5E000BFB06800F00C0008288D
:1021C00003D1706840023FF558AF6068B0F5803FBA
:1021D00007D0B0F5A02F40F08D80306840F480200B
:1021E0003060306840F4803030608DE0E068002876
:1021F00052D00020C4F2472001210160FEF7D8FD33
:10220000054600BF306880073FF554AFFEF7D0FDAC
:10221000401B0228F6D984E0A068012805D00528D3
:102220004ED1306F40F004003067306F40F0010055
:1022300030674FE00021C0F8801EFEF7B9FD05466B
:10224000706F80077FF540AFFEF7B2FD401B02289C
:10225000F6D966E00027C4F2472700203866FEF76B
:10226000A7FD022D05460BD1306880015ED5FEF733
:102270009FFD401B02284FF00300F5D955E700BF32
:10228000306880017FF550AFFEF792FD401B0228B9
:102290004FF00300F4D948E70020C4F247200021A2
:1022A0000160FEF785FD0546306880077FF509AFC0
:1022B000FEF77EFD401B02284FF00300F4D934E7FF
:1022C000316F002821F001013167316F21F00401E5
:1022D00031674DD0FEF76CFD054641F2883700BFEF
:1022E000306F800756D4FEF763FD401BB842F7D924
:1022F00017E000BF3168002821F480313160316877
:1023000021F4802131604FD0FEF752FD054600BF19
:10231000306880033FF5B7AEFEF74AFD401B6428E6
:10232000F6D9032002B0BDE8F08100BF04F11C051E
:102330002FCD084340EA8210D9034FF6FF72914334
:10234000A1F5803140EA05600843706001203866DD
:10235000FEF72EFD044600BF306880013FF5E4AE75
:10236000FEF726FD001B02284FF00300F4D9DCE63F
:10237000FEF71EFD054641F2883700BF306F80072B
:1023800008D5FEF715FD401BB8424FF00300F5D904
:10239000CBE600BFB8F1000F7FF499AE306C20F0AF
:1023A0008050306493E600BFFEF702FD054600BF93
:1023B000306880037FF567AEFEF7FAFC401B6428A7
:1023C0004FF00300F4D9B0E6411E0020B0EB116FCE
:1023D0001CBF012070474EF21002CEF20002516085
:1023E0004EF62351CEF20001F0230B7007219060CE
:1023F000116070477047000070470000B0B590F85A
:102400003C20012A04BF0220B0BD01F108053CCDEB
:10241000D1E900CE23F47C5322F470521A432EF4F7
:10242000F0431A432CF4E0431A4324F4C0431A4304
:102430002A43C96922F48042036811435964002188
:1024400080F83C100846B0BD10B590F83C20012A39
:102450004FF002023ED080F83D200268D2F804E03E
:10246000D2F808C00C682EF07003234340F6FF3406
:10247000C4F20004A242536010DCB2F1804F1ED0BF
:1024800040F20043C4F200039A4218D040F6000321
:10249000C4F200039A4212D016E000BF40F6004397
:1024A000C4F200039A420AD044F20003C4F20103CA
:1024B0009A4204D00023C4F201039A4204D149682D
:1024C0002CF08003194391600121002280F83D1017
:1024D00080F83C20104610BD002804BF0120704742
:1024E00010B5044690F83D0028B9002084F83C005F
:1024F000204600F08FF8022084F83D00206840F26A
:10250000FF730268C4F2000340F2000C9842C4F268
:10251000010C1DDD40F60001C4F20001884220D00C
:1025200060451ED040F60041C4F20001884218D038
:102530004FF6FF71C4F2000188421CDC984225DC92
:10254000B0F1804F3AD040F20041C4F2000133E0D4
:10255000B0F1804F05D040F20041C4F20001884242
:10256000E6D1A16822F070020A434FF6FF71C4F26F
:1025700000018842E2DD44F2FF31C4F201018842E9
:1025800010DC60451AD044F2000113E040F600016F
:10259000C4F20001884211D040F60041C4F20001AB
:1025A0000AE000BF44F60001C4F20101884205D0F0
:1025B00044F20041C4F20101884203D1216922F4AE
:1025C00040720A43A36922F08001D4F804E0E26873
:1025D000194360450160C262C0F828E002D1616918
:1025E000CCF8301001214161002084F8461084F8B5
:1025F0003E1084F83F1084F8401084F8411084F8AD
:10260000421084F8431084F8441084F8451084F88C
:102610003D1010BDF0B583B004460068B0F1804FA6
:102620003ED00021C4F20101884255D1002043F67A
:1026300040010290C4F202014A6841F6F80542F0F6
:1026400001024A604968C2F2000501F001010291ED
:10265000029946F28841C4F202014FF040624023E1
:1026600085E80E0005F10C014FF4806C4FF4805E9C
:1026700081E801504FF400314FF480464FF48077E9
:10268000C5E908102846C5E90667FEF7A1F9002844
:1026900018BFFEF7B7F82562AC63192410E000BF3D
:1026A0000020019043F64000C4F2020001681C249F
:1026B00041F001010160006800F001000190019803
:1026C000204603210022FEF7F7FB204603B0BDE8B9
:1026D000F040FEF7DDBB00BF03B0F0BD80B590F861
:1026E0003C20012A4FF0020200F0C28080F83D2019
:1026F000D0F800C04FF67772DCF8083023EA020207
:10270000CCF808200B684F2B28DC1F2B44DD202B36
:1027100045D0302B43D0402B40F0AC80D1F804E0C2
:10272000C968DCF82030DCF8202022F00102CCF867
:102730002020DCF8182022F0F00242EA011123F0F8
:102740000A0242EA0E02CCF81810CCF82020DCF87D
:10275000081041F0470121F0300180E06F2B27DDA8
:10276000B3F5005F48D0B3F5805F7AD0702B40F0AE
:102770008180D1E901E3C968DCF8082043EA0E034F
:1027800022F47F4243EA01211143CCF80810DCF81F
:10279000081041F0770162E00BB1102B6AD1DCF830
:1027A000081021F07001194341F0070157E000BF04
:1027B000502B35D0602B5DD1D1F804E0C968DCF82E
:1027C000203023F01003CCF82030DCF81830DCF88F
:1027D000202023F4704322F0A00243EA013142EAB0
:1027E0000E12CCF81810CCF82020DCF8081041F0BC
:1027F000670121F0100132E0D1E901E3C968DCF89A
:10280000082043EA0E0322F47F4243EA01211143E8
:10281000CCF80810DCF8081041F480411FE000BF3C
:10282000D1F804E0C968DCF82030DCF8202022F080
:102830000102CCF82020DCF8182022F0F00242EA55
:10284000011123F00A0242EA0E02CCF81810CCF86B
:102850002020DCF8081041F0570121F02001CCF8CD
:1028600008100022012180F83D10002180F83C1062
:10287000104680BD0122F5E77047000010B50168E1
:1028800004460869800744BFC8685FEA807039D48D
:102890000869400744BFC8685FEA40703ED40869D1
:1028A000000744BFC8685FEA007045D40869C006E5
:1028B00044BFC8685FEAC0604AD40869C0071CBF4B
:1028C000C8685FEAC07051D10869000644BFC86893
:1028D0005FEA006052D40869400644BFC8685FEAF6
:1028E000406053D40869800646BFC8685FEA8060CC
:1028F00010BD6FF0200220460A61BDE81040FFF7CE
:102900007BBD00BF6FF0020008610120207788695D
:10291000800743D02046FFF7AFFF45E06FF004008B
:10292000086102202077886910F4407F40D020465B
:10293000FFF7A2FF42E000BF6FF00800086104202B
:102940002077C86980073DD02046FFF795FF3FE01C
:102950006FF01000086108202077C86910F4407FEC
:102960003AD02046FFF788FF3CE000BF6FF001003F
:102970000861204600F05CFD2168A5E76FF080004B
:1029800008612046FFF736FD2168A4E76FF040009C
:102990000861204600F07AFD2168A3E7204600F098
:1029A0001FF9204600F0F6FB2168002020776FE732
:1029B000204600F015F9204600F0ECFB21680020CD
:1029C00020776CE7204600F00BF9204600F0E2FB90
:1029D00021680020207769E7204600F001F92046B1
:1029E00000F0D8FB21680020207766E780B586B02C
:1029F00001680020C4F20100814201D006B080BD10
:102A0000002143F630020191C4F20202136800F57E
:102A1000803043F001031360126802F0010201925A
:102A2000019A4FF4807201920222CDE902210491B1
:102A30000121059101A9FEF7E1F806B080BD000073
:102A40002DE9F04190F83C30012B04BF0220BDE895
:102A5000F0814FEAB202032A30D8DFE802F00337F0
:102A6000679700BF02680025136AC4F2010523F0CE
:102A700001031362146A5368D2F818C0AA428D6821
:102A8000D1F800E024F0020444EA05040BD1CD683B
:102A9000D1E9056723F4407324F00C0425F0040504
:102AA00033432C433B432CF0730747EA0E07536034
:102AB00097614968516314628BE000BF01210022D5
:102AC00080F83C200846BDE8F08100BF0268002580
:102AD000136AC4F2010523F010031362146A5368E9
:102AE000D2F818C0AA428D68D1F800E024F0200482
:102AF00044EA05140FD1CD68D1E905876FF040068F
:102B000024F0C00406EA05152C4323F4406348EA88
:102B1000070543EA85032CF4E64747EA0E2753608E
:102B2000976149689163146253E000BF0268002511
:102B3000136AC4F2010523F480731362146A5368A4
:102B4000D2F81CC0AA428D68D1F800E024F40074C9
:102B500044EA05240FD1CD68D1E905872D0240F262
:102B6000FF4624F44064B5432C4323F4405348EA21
:102B7000070543EA05132CF0730747EA0E07536075
:102B8000D7614968D163146223E000BF0268002660
:102B9000136AC4F2010623F480531362136A546863
:102BA000D2F81CE00D68D1F808C0B24204D14E69D9
:102BB00024F4804444EA86142EF4E64747EA0527C5
:102BC0005460D76123F40053496843EA0C3311641D
:102BD00013620021002280F83C200846BDE8F08105
:102BE00070470000002804BF0120704710B504465C
:102BF00090F83D0028B9002084F83C00204600F001
:102C00008FF8022084F83D00206840F2FF730268CC
:102C1000C4F2000340F2000C9842C4F2010C1DDD26
:102C200040F60001C4F20001884220D060451ED069
:102C300040F60041C4F20001884218D04FF6FF71FF
:102C4000C4F2000188421CDC984225DCB0F1804FC0
:102C50003AD040F20041C4F2000133E0B0F1804FBD
:102C600005D040F20041C4F200018842E6D1A168DB
:102C700022F070020A434FF6FF71C4F2000188424D
:102C8000E2DD44F2FF31C4F20101884210DC60450C
:102C90001AD044F2000113E040F60001C4F2000132
:102CA000884211D040F60041C4F200010AE000BFA2
:102CB00044F60001C4F20101884205D044F200410B
:102CC000C4F20101884203D1216922F440720A430F
:102CD000A36922F08001D4F804E0E268194360455A
:102CE0000160C262C0F828E002D16169CCF83010FE
:102CF00001214161002084F8461084F83E1084F8D8
:102D00003F1084F8401084F8411084F8421084F891
:102D1000431084F8441084F8451084F83D1010BD29
:102D20007047000041B1082916D0042914BF00F1F2
:102D3000410200F13F0211E090F83E20012A1CBF41
:102D400001207047022280F83E204FEAB103032B96
:102D50004FF0010216D81FE000F140021278012A5C
:102D60001CBF01207047022208290DD0042914BF7E
:102D700080F8412080F83F204FEAB103032B4FF049
:102D8000010209D91046704780F840204FEAB1038C
:102D9000032B4FF00102F5D846F2180C0068C0F67C
:102DA000000C5CF823C0C36801F01F0143EA0C0368
:102DB000C360036A8A4023EA02010162036A442174
:102DC000C4F201011A43A1F144039842026215D0F2
:102DD00040F6FF31C4F20001884219DCB0F1804FA7
:102DE00027D040F20041C4F20001884221D040F6D1
:102DF0000001C4F2000188421BD021E00A6842F4BD
:102E000000420A6040F6FF31C4F200018842E5DD6D
:102E100040F60041C4F2000188420AD044F20001A9
:102E2000C4F20101884204D00021C4F201018842A9
:102E300006D1816801F00701062904BF0020704710
:102E40000168002241F00101016010467047000056
:102E50002DE9F04390F83C30012B04BF0220BDE87F
:102E6000F0834FEAB202032A3AD8DFE802F00341C6
:102E70007DB900BF036800261A6AC4F2010622F079
:102E800001021A621D6A1A465C6852F818CFB342F2
:102E90008E68D1F800E025F0020545EA06050CD160
:102EA000CE68D1E9057824F4407425F00C0526F0AD
:102EB00004063C43354344EA08042CF0730747EA10
:102EC0000E075C609F614F6809695F631D629F69BF
:102ED00047F008079F619F6927F004079F61AEE0F4
:102EE0000121002280F83C200846BDE8F08300BFA5
:102EF000036800261A6AC4F2010622F010021A6260
:102F00001D6A1A46D3F804C052F8184FB3428E68AF
:102F1000D1F800E025F0200545EA061510D1CE686D
:102F2000D1E9058725F0C0096FF0400505EA0615CF
:102F30002CF4406647EA080745EA090546EA870C8B
:102F400024F4E64444EA0E27C3F804C09F614F68A6
:102F500009699F631D629F6947F400679F619F69CC
:102F600027F480679F6169E0036800261A6AC4F24B
:102F7000010622F480721A621D6A1A46D3F804C050
:102F800052F81CEFB3428E680C6825F4007545EAD0
:102F9000062511D1CE68D1E9058725F440693602AE
:102FA00040F2FF4526EA05052CF4405647EA08079B
:102FB00045EA090546EA071C2EF073072743C3F8C4
:102FC00004C0DF614F680969DF631D62DF6947F094
:102FD0000807DF61DF6927F00407DF612FE000BF2A
:102FE000036800271A6AC4F2010722F480521A62A9
:102FF0001A46D3F820C05D6852F81C4FD1F800E0A3
:103000008E68BB4204D14F6925F4804545EA871597
:103010002CF4005747EA063724F4E64646EA0E2623
:103020005D60DE614E6809691E641F62DF6947F4F6
:103030000067DF61DF6927F48067DF6109021368D9
:10304000194311600021002280F83C200846BDE8A9
:10305000F0830000002804BF0120704710B504462B
:1030600090F83D0028B9002084F83C00204600F08C
:103070008FF8022084F83D00206840F2FF73026858
:10308000C4F2000340F2000C9842C4F2010C1DDDB2
:1030900040F60001C4F20001884220D060451ED0F5
:1030A00040F60041C4F20001884218D04FF6FF718B
:1030B000C4F2000188421CDC984225DCB0F1804F4C
:1030C0003AD040F20041C4F2000133E0B0F1804F49
:1030D00005D040F20041C4F200018842E6D1A16867
:1030E00022F070020A434FF6FF71C4F200018842D9
:1030F000E2DD44F2FF31C4F20101884210DC604598
:103100001AD044F2000113E040F60001C4F20001BD
:10311000884211D040F60041C4F200010AE000BF2D
:1031200044F60001C4F20101884205D044F2004196
:10313000C4F20101884203D1216922F440720A439A
:10314000A36922F08001D4F804E0E26819436045E5
:103150000160C262C0F828E002D16169CCF8301089
:1031600001214161002084F8461084F83E1084F863
:103170003F1084F8401084F8411084F8421084F81D
:10318000431084F8441084F8451084F83D1010BDB5
:10319000704700002DE9F04F89B040F6FC00C2F204
:1031A0000000026840F66010C2F200008168100161
:1031B000089050000790C2EB02100690C2EBC200CC
:1031C0000590400004900D20504302EB420703900D
:1031D000B80002900B20504302EB820540F6B83B4A
:1031E00040F6B4140190680002EBC20C4FEAC20E24
:1031F0004FEA47084FEA82094FF0000AC2F2000B7B
:10320000C2F20004009000BF5018C0F346405BF8C3
:1032100020307E1844F80A30079BC6F346460B441C
:10322000C3F346435BF823305BF8266004EB0A00E7
:10323000C0E9013609EB01036E18C3F34643C6F338
:1032400046465BF823305BF826600AF1400AC0E985
:103250000336059E08EB01030E44C3F34643C6F351
:1032600046465BF823305BF82660BAF5807FC0E9FC
:1032700005360EEB01030CEB0106C3F34643C6F320
:1032800046465BF823305BF82660C0E90736009BB2
:10329000019E0B440E44C3F34643C6F346465BF817
:1032A00023305BF82660C0E90936029B039E0B447D
:1032B0000E44C3F34643C6F346465BF823305BF83F
:1032C0002660C0E90B36049B069E0B440E44C3F3F4
:1032D0004643C6F346465BF823305BF82660C0E9F8
:1032E0000D36089B1944C1F346435BF82360C6635F
:1032F0008AD140F66010C2F200008160037009B00C
:10330000BDE8F08F41B1082916D0042914BF00F19F
:10331000410200F13F0211E090F83E20012A1CBF5B
:1033200001207047022280F83E204FEAB103032BB0
:103330004FF0010216D81FE000F140021278012A76
:103340001CBF01207047022208290DD0042914BF98
:1033500080F8412080F83F204FEAB103032B4FF063
:10336000010209D91046704780F840204FEAB103A6
:10337000032B4FF00102F5D846F2180C0068C0F696
:10338000000C5CF823C0C36801F01F0143EA0C0382
:10339000C360036A8A4023EA02010162036A44218E
:1033A000C4F201011A43A1F144039842026215D00C
:1033B00040F6FF31C4F20001884219DCB0F1804FC1
:1033C00027D040F20041C4F20001884221D040F6EB
:1033D0000001C4F2000188421BD021E00A6842F4D7
:1033E00000420A6040F6FF31C4F200018842E5DD88
:1033F00040F60041C4F2000188420AD044F20001C4
:10340000C4F20101884204D00021C4F201018842C3
:1034100006D1816801F00701062904BF002070472A
:103420000168002241F00101016010467047000070
:1034300070470000B0B5044690F83C0001284FF0FA
:10344000020008BFB0BD012584F83C5084F83D005F
:10345000204600F0D7F800284FF0010006D00021E8
:1034600084F83D5084F83C10B0BD00BF2068C168AE
:1034700021F04001C160C16821F48041C160002099
:10348000002184F83D5084F83C10B0BD7047000026
:10349000FEE7000080B541F21C6040F20801C2F274
:1034A0000000C2F20001002200F0CEFD002818BF8B
:1034B000FDF7A8F941F21C6040F62801C2F20000B5
:1034C000C2F2000101F020F8002818BFFDF79AF9B8
:1034D00041F21C6040F6C401C2F20000C2F20001D9
:1034E00000F0C2FA002818BFFDF78CF941F21C6009
:1034F000C2F2000001F032F8002808BF80BDBDE82C
:103500008040FDF77FB90000FEE70000FEE7000005
:1035100041F65810C2F20000FDF7C4BE704700002B
:1035200070470000FDF74ABCB0B592B0002443F6E6
:103530004000CDE90A44CDE908440594CDE90344AF
:10354000CDE901440094C4F202000168022541F073
:1035500080510160006800F080500090009847F2B0
:1035600000000094C4F20000016865F38F3101602F
:10357000006800F4404000900098012006904FF44D
:10358000803007904FF480000D9019200E904FF47A
:10359000A8700F90042010900720119006A80C9599
:1035A000FEF758FD20B1EFF3108072B6FEE700BFC2
:1035B0000F20CDE901054FF48050CDE9040401A8A6
:1035C00002210394FEF75AFC20B1EFF3108072B68B
:1035D000FEE700BF12B0B0BD4EF68850CEF200003C
:1035E000016841F4700101607047000040F66C1002
:1035F000C2F20000FFF742B941F66460C2F2000077
:10360000FFF73CB980B5D0F800E0DEF80800D1E95A
:1036100000C320F0770023F0070210434FEA331372
:1036200040EA0C00072BCEF8080009D80020DFE89C
:1036300003F00505050509233D5700BF80BD00BF08
:10364000012080BDBCF1050F04BF012080BDDEF864
:103650002000DEF8202022F00102CEF82020DEF843
:103660001820096922F0F00242EA0111CEF8181080
:10367000CEF82000002080BD88680969DEF820208F
:10368000DEF8203022F00A0223F00103CEF82030C9
:10369000DEF81830104323F0F00343EA0111CEF8AE
:1036A0001810CEF82000002080BD00BF886809698E
:1036B000DEF8202022F01002CEF82020DEF81820BC
:1036C000DEF8203022F4704242EA013123F0A002F9
:1036D00042EA0010CEF81810CEF82000002080BD7D
:1036E000D1E902020969DEF80830104323F47F4370
:1036F00040EA01201843CEF80800002080BD0000F9
:10370000B0B5D0F8D42200EB8202D2F8C0323BB37D
:1037100001F00F058C4605EB850100EB810151F8A6
:10372000184F64B1D0F8C8E205EBC5050EEB85056E
:10373000D5F848E0B4FBFEF505FB1E4595B1002425
:10374000C3F81442D2F8C402056935B1D3F80802AF
:1037500003F504716246A84700242046B0BD00BFAF
:103760000320B0BD00240C6061460022002300F05D
:10377000ADFE2046B0BD0000B0B50446D0F8D4027E
:1037800004EB8000D0F8C05295B1204600F040FD17
:10379000D4F8D412C5F80C0204EB8101D1F8C4129C
:1037A000D5F80402CA6805F5037190470020B0BD42
:1037B0000320B0BD70B58121044600F06DFC0025EA
:1037C00020460121258700F067FC20468221A4F8CD
:1037D000785100F061FCD4F8D402E56404EB800079
:1037E000D0F8C01289B1D0F8C40240688047D4F83C
:1037F000D40204F5307656F8200001F06FF9D4F8C1
:10380000D40246F82050C4F8BC52002070BD00001D
:1038100010B5D0F8D41200EB8100D0F8C0428CB1C2
:10382000D0F8C41281B194F80002FF280CD08B6844
:1038300094F8012221469847FF2084F800020020D6
:1038400010BD00BF032010BD002010BD014640F692
:10385000A4000A22C2F200000A807047F0B581B0CD
:1038600040F66007C2F2000704463846822100F0A5
:103870003DFB06463846012100F038FB0546384638
:10388000812100F033FB002E1CBF1021B171002DEF
:103890001CBF4021A98000281CBF402181804321FA
:1038A00040F66000C2F20000218001B0F0BD0000CF
:1038B000F0B581B040F66007C2F200070446384612
:1038C000822100F013FB06463846012100F00EFB72
:1038D00005463846812100F009FB002E1CBF10214F
:1038E000B171002D1CBF4FF40071A98000281CBFCE
:1038F0004FF400718180432140F66000C2F2000065
:10390000218001B0F0BD0000F0B581B040F6600745
:10391000C2F2000704463846822100F0E7FA064664
:103920003846012100F0E2FA05463846812100F0D0
:10393000DDFA002E1CBF1021B171002D1CBF4021EB
:10394000A98000281CBF40218180432140F66000EF
:10395000C2F20000218001B0F0BD00002DE9F0416D
:1039600004464FF4077001F0BBF800284ED04FF426
:1039700007710546FCF7CEFDD4F8D402402704EBCE
:103980008000C0F8C052207CC4F8BC52002808BF98
:103990004FF400772046812102223B46022600F0A8
:1039A000ADFC4FF001082046012102223B46A4F85D
:1039B000388000F0A3FC1020A4F84E00204682219D
:1039C00003220823A4F8788100F098FCD4F8D402EC
:1039D0000027C5F8047204EB8000D0F8C402A4F8F4
:1039E0004C8000688047C5F81472C5F81872D5F885
:1039F00004223AB1207C98B120460121402300F0F6
:103A000091FC00263046BDE8F08100BFD4F8D40216
:103A1000002104EB8000C0F8C0120220BDE8F08154
:103A2000204601214FF4007300F07CFC0020BDE82B
:103A3000F081000080B5D0F8D41200EB8101D1F8FC
:103A4000C01279B190F810C0D1F8042240230121AE
:103A5000BCF1000F08BF4FF4007300F063FC0020BE
:103A600080BD00BF032080BD00290FBF0320D0F818
:103A7000D42200EB8200C0F8C41218BF00207047A7
:103A8000D0F8D42200EB8200D0F8C00200280EBF8C
:103A90000320C0F80412002070470000D0F8D43290
:103AA00000EB8300D0F8C00200280FBF0320C0F84D
:103AB0000812C0F8102200207047000070B582B0D4
:103AC0000446D0F8D4020D4604EB8000D0F8C06262
:103AD00000218DF80710ADF80410DEB1297811F03F
:103AE00060021BD0202A61D1EA88002A2ED049B278
:103AF000B1F1FF3F36DD6878314686F80002204696
:103B0000402A28BF402286F8012200F0A1F80026B2
:103B100018E000BF0326304602B070BD68780B285D
:103B200044D80026DFE800F0060E424242424242FC
:103B300042422C3A94F89C02032837D101A920462E
:103B4000022225E0304602B070BD00BFD0F8C402AA
:103B5000294683686878002200269847304602B0DC
:103B600070BD00BFD0F8C4023146836868789847BA
:103B7000EA8820463146072A28BF072208E000BF0E
:103B800094F89C02032811D10DF10701204601226F
:103B900000F078F80026304602B070BD94F89C0220
:103BA000032803D10026304602B070BD20462946C6
:103BB00000F042F80326304602B070BD80B5D0F860
:103BC000D41200EB8101D1F8C0223AB1D2F814121C
:103BD00000294FF0010103D0084680BD032080BDBD
:103BE000C2F81412D2F81032D2F808228121C3622E
:103BF00000F06CFC0021084680BD000080B5D0F8C4
:103C0000B82252689047002818BF032080BD0000EA
:103C1000002070470020704780B513460A460021F7
:103C200000F080FB002080BD80B513460A460021CD
:103C300000F04CFC002080BD10B58021044600F04F
:103C400017FC20460021BDE8104000F011BC000028
:103C500080B513460A460321C0F894120021C0E93A
:103C6000563300F05FFB002080BD000080B50521C9
:103C7000C0F8941200210022002300F053FB002022
:103C800080BD000080B513460A460221C0F8941298
:103C90000021C0E9063300F019FC002080BD0000BF
:103CA00080B50421C0F8941200210022002300F006
:103CB0000DFC002080BD000010B540F6BC54C2F2DF
:103CC00000040A4602A0214600F050F9204610BD2B
:103CD00043444320436F6E666967000040F6B000BE
:103CE0001222C2F200000A807047000010B540F6B0
:103CF000BC54C2F200040A4602A0214600F036F984
:103D0000204610BD43444320496E7465726661636A
:103D10006500000040F6D8000422C2F200000A80CC
:103D20007047000010B540F6BC54C2F200040A46C9
:103D300002A0214600F01AF9204610BD53544D69E7
:103D400063726F656C656374726F6E696373000094
:103D500010B540F6BC54C2F200040A4602A0214647
:103D600000F004F9204610BD53544D3332205669FB
:103D7000727475616C20436F6D506F727400000037
:103D8000B0B547F61020C1F6FF70026883684FF0A7
:103D90001A0C9B18A1F800C000F0A3804FF0370C5C
:103DA0001A0F0CEB13714068B3F1204F38BF02F1CA
:103DB000300140F6DC02C2F20002917019014FF0AE
:103DC000000E0CEB117582F803E0C3F30364B1F14C
:103DD000204F38BF04F13005190215710CEB117535
:103DE00082F805E0C3F30354B1F1204F38BF04F16A
:103DF0003005190395710CEB117582F807E0C3F3D8
:103E00000344B1F1204F38BF04F130051904157295
:103E10000CEB117582F809E0C3F30334B1F1204FC4
:103E200038BF04F13005190595720CEB117582F855
:103E30000BE0C3F30324B1F1204F38BF04F1300588
:103E400019061573C3F303140CEB1175B1F1204F70
:103E50004FEA037103F00F0382F80DE038BF04F15D
:103E6000300503F13704957382F80FE0B1F1204F6C
:103E700038BF03F13004010F0CEB1073147482F897
:103E800011E0B0F1204F38BF01F1300301010CEB1C
:103E90001174937482F813E0C0F30363B1F1204FFF
:103EA00038BF03F1300401021475C0F303530CEB67
:103EB0001174B1F1204F4FEA003182F815E038BF9C
:103EC00003F130040CEB1173947582F817E0C0F322
:103ED0000340B1F1204F38BF00F13003137682F870
:103EE00019E040F6DC00C2F20000B0BD80B5B0F8C9
:103EF00002C003789C4509D8002080BD82788A42A0
:103F000008BF80BD73449AB262452DD290F800E09C
:103F100070444278052A02D182788A4225D07344BF
:103F20009AB26245E8D290F800E070444278052ADF
:103F300002D182788A4218D073449AB26245DBD2A9
:103F400090F800E070444278052A02D182788A42D3
:103F50000BD073449AB26245CED290F800E0704420
:103F60004278052ACAD0CDE7002080BD10B50028D0
:103F700068D00378B3B100F1020E4FF0000C00BF1F
:103F80001EF8013C93B19EF800309BB19EF80130C1
:103F9000A3B19EF802300CF1040C002B0EF1040EBC
:103FA000EED10DE04FF0000C0AE000BF4CF0010C28
:103FB00006E000BF4CF0020C02E000BF4CF0030C26
:103FC0005FFA8CFC022303EB4C03138003220B707B
:103FD0004A7090F800E0BEF1000F33D0841C02223A
:103FE0004FF0000C1AE000BF101DC0B20B5440F09F
:103FF000010001F800C06378002B08BF10BD901DC0
:10400000C0B20B5440F0010001F800C094F802E087
:104010000832BEF1000F04F1040413D0D3B201F84A
:1040200003E043F0010301F803C014F8013C4BB175
:10403000901CC0B20B5440F0010001F800C023787E
:10404000002BD1D110BD0000002804BF0320704711
:104050000023C0F8B832C0F8C4320029C0F8D0320A
:1040600018BFC0F8B412012180F89C12027000F051
:10407000D3B8000080B5D0F8C802FDF71BF840F2B5
:104080000032C100C0F2013222FA01F1032888BFD8
:104090000321C8B280BD000080B5D0F8C802FCF78B
:1040A000E1FF40F20032C100C0F2013222FA01F118
:1040B000032888BF0321C8B280BD0000B0B5044604
:1040C00091B194F89C02032851D1D4F8B802426906
:1040D000002A4CD00020C4F8D40220469047002883
:1040E00008BF0020B0BD00BFD4F89402022837D129
:1040F000D4E9070188420DD9431A204611461A46D1
:10410000E361FFF791FD204600210022002300F02B
:1041100009F925E010D1A16981420DD3D4F89802A4
:10412000814209D22046002100220025FFF77CFDB4
:10413000C4F89852E7E700BF94F89C02032808D11E
:10414000D4F8B802C16821B10020C4F8D4022046D6
:1041500088472046802100F08BF92046FFF786FD36
:1041600094F8A00200281CBF002084F8A0020020C0
:10417000B0BD000010B5044681B194F89C0203283C
:104180001FD1D4F8B8028269DAB10020C4F8D40291
:1041900020469047002808BF002010BDD4F89402A4
:1041A00003280ED1D4E9570398420DD9C01AC4F898
:1041B0005C01984238BF0346204611461A46FFF775
:1041C0002BFD002010BD00BF94F89C02032808D1ED
:1041D000D4F8B802016921B10020C4F8D402204605
:1041E00088472046FFF75CFD002010BD0020704787
:1041F00080B5012180F89C12D0F8B81231B14A681C
:1042000001799047002818BF032080BD002080BDA1
:10421000D0F8C802FCF782BF10B5017811B10020B8
:1042200010BD00BF41F65811C2F20001C1F80805E7
:10423000C0F8C8124FF0A0400422C1E900020220D9
:104240000022C1E90302C1E906020846C1E90822C9
:10425000C1E90B22FDF7C2FC002818BFFCF7D2FA17
:1042600041F65814C2F2000420468021FCF762FE99
:10427000204600214022FCF761FE204601218022D9
:10428000FCF75CFE002010BD4AB2D0F8C80201F075
:104290007F0101EBC10100EB810000F27E21002AC9
:1042A00048BF00F13E0108787047000080B5D0F8A3
:1042B000D42200EB8202D2F8B8224AB190F89C32A4
:1042C000032B02D1126A02B19047002080BD00BFCB
:1042D000032080BD80B5D0F8D42200EB8202D2F852
:1042E000B8224AB190F89C32032B02D1526A02B133
:1042F0009047002080BD00BF032080BD80B594465C
:10430000D0F8C8021A466346FCF712FF40F20032AA
:10431000C100C0F2013222FA01F1032888BF032153
:10432000C8B280BD80B5D0F8C802FCF735FF40F2B6
:104330000032C100C0F2013222FA01F1032888BF25
:104340000321C8B280BD0000F0B581B00126002570
:1043500080F89C62C0F8945204464560D0F8B802D8
:10436000C4F8A45284F8A05258B1426842B1204621
:10437000002190470546002818BF032501E000BF33
:10438000002520460021002240234027FFF7B6FFEA
:104390002046802100224023A4F86461C4F86071A3
:1043A000FFF7ACFFA6842846276201B0F0BD0000ED
:1043B00090F89C12042904BF90F89D1280F89C127A
:1043C0000020704780B590F89C12032906D1D0F8E0
:1043D000B81219B1C969002918BF8847002080BDEB
:1043E000024600201174704780B5D0F8C802FDF76E
:1043F000EFFC40F20032C100C0F2013222FA01F1BA
:10440000032888BF0321C8B280BD0000B0B500F208
:10441000AA250446284600F06BF80120C4F894024F
:1044200094F8AA02B4F8B02200F01F010229C4F8DF
:10443000982209D001290DD091B920462946BDE81E
:10444000B04000F08DB800BF20462946BDE8B0401E
:1044500000F040BA20462946BDE8B04000F0F4BA6A
:1044600000F080012046BDE8B04000F001B8000037
:1044700080B5D0F8C802FCF7B5FE40F20032C100AA
:10448000C0F2013222FA01F1032888BF0321C8B229
:1044900080BD000080B5D0F8C802FDF7B5FC40F241
:1044A0000032C100C0F2013222FA01F1032888BFB4
:1044B0000321C8B280BD0000014690F89C0204228E
:1044C00081F89D02002081F89C22704780B5D0F8C9
:1044D000C802FCF7C5FE40F20032C100C0F2013252
:1044E00022FA01F1032888BF0321C8B280BD000071
:1044F0000A7802704A7842704A8842808A888280AC
:10450000C988C1807047000010B582B00446002001
:10451000ADF80600B1B1D4F8D42204F52E70C4F879
:10452000B81250F82200C16A21B10DF10600884787
:10453000C4F8D002D4F8D8020130C4F8D802002060
:1045400002B010BD032002B010BD0000D0F8B822A8
:10455000002A04BF0020704712681047FFF79ABF77
:10456000B0B582B00D460978044611F0600111D053
:10457000402901D020292FD1D4F8D402294604EBB8
:104580008000D0F8B8028268204602B0BDE8B04092
:10459000104700BF6878092800F2D080DFE800F0FB
:1045A0000628CE3ACE4666CE7E9200BF94F89C0294
:1045B0000138022800F2C280E888022840F0BE805C
:1045C000D4F8A4020322002808BF0122214641F8A2
:1045D0000C2F2046022263E120468021FFF748FF8E
:1045E000204600210025FFF743FF284602B0B0BD5A
:1045F00094F89C020138022800F2A0806888002507
:104600000128F2D12046C4F8A452FFF749FB2846FE
:1046100002B0B0BD6888022800F08680012840F012
:104620008D800120C4F8A40240E100BFA8880028C2
:1046300040F08480E888002840F0808068887F28E7
:1046400000F27C8094F89C12032900F07780C5B2B8
:1046500084F89E0220462946FFF7C6FE2046FFF753
:104660001FFB002D0CBF01200220EFE068884FF0F7
:10467000FF3101EB102100220629ADF8062000F2DF
:104680001D81DFE811F00700670075001B011B01A9
:1046900083008F00D4F8B4020268F1E0E8880128B2
:1046A0004CD194F89C02411E022941D2002521469A
:1046B00041F8085F20460122FFF7E4FA284602B0DD
:1046C000B0BD00BF688840F6B855C2F2000510F0D2
:1046D000FE0F28700CD020468021FFF7C9FE20462F
:1046E0000021FFF7C5FE0325284602B0B0BD00BF7C
:1046F00094F89C22C1B2032A62D0022A40F0828040
:10470000002900F0D38020466160FFF71FFF0028DA
:1047100000F09880054620468021FFF7A9FE20463C
:104720000021FFF7A5FE67E0687984F8A002BDE0EC
:10473000032803D1211D20460122B1E0204680211B
:10474000FFF796FE204600210025FFF791FE284640
:1047500002B0B0BD217CD4F8B80200290CBF816A38
:10476000C16A0DF1060088470146022026E000BF1D
:10477000C0B2052800F2A280DFE800F0046E727675
:104780007A7E00BFD4F8B402426878E0207C00282A
:1047900040F09480D4F8B802416B0DF106008847D0
:1047A00072E000BF207C002840F08880D4F8B80276
:1047B000016B0DF10600884701460720487064E050
:1047C00081B36068884271D0C1B22046FFF716FA03
:1047D000297820466160FFF7B9FE002866D00546BB
:1047E00020468021FFF744FE20460021FFF740FECF
:1047F00021792046FFF702FA022084F89C0228461D
:1048000002B0B0BD20468021FFF732FE20460021D5
:10481000FFF72EFE29782046FFF7F0F903252846FA
:1048200002B0B0BD022084F89C02616020460021E5
:104830000025FFF7E3F92046FFF732FA284602B0D9
:10484000B0BD00BF2046FFF72BFA032084F89C027E
:104850000025284602B0B0BDD4F8B40282680EE04C
:10486000D4F8B402C2680AE0D4F8B402026906E0DF
:10487000D4F8B402426902E0D4F8B4028269EAB121
:10488000207C0DF1060190470146EA8872B1BDF81F
:10489000060098B1904238BF02462046ADF8062087
:1048A000FFF7F0F90025284602B0B0BD2046FFF71B
:1048B000F7F90025284602B0B0BD00BF2046802190
:1048C000FFF7D6FD20460021FFF7D2FD0025284640
:1048D00002B0B0BD70B50E460978357911F06001AF
:1048E00004460BD0402902D0202940F07B8020468E
:1048F0002946FFF78DF9D8B1002070BD707828B334
:1049000001283BD003286DD194F89C02032839D1AB
:10491000708840B915F07F0005D0F08818B920469E
:104920002946FFF7A5FD2046FFF7BAF9002070BD24
:10493000D4F8B80282680020002AC4F8D402DBD080
:1049400020463146BDE87040104700BF94F89C02F5
:10495000032825D0022808BF5FEA456042D115F040
:10496000800004F114014FF0140004BF4FF4AA704A
:1049700004F5AA710022225020465FE094F89C02C0
:10498000032839D002282DD168062BD0204629468D
:10499000FFF76EFD20468021FFF76AFD002070BD05
:1049A00005F00F0000EB8000802D04EB80002CBF91
:1049B000808CB0F86401A8B105F07F0000EB8000A6
:1049C00004EB800000F11406802D38BF00F5AA76B4
:1049D00068062FD020462946FFF756FC002818BF4E
:1049E000012028E020468021FFF742FD20460021DB
:1049F000FFF73EFD002070BD708800287FF47CAF7B
:104A0000680603D020462946FFF734FB2046FFF70F
:104A100047F920462946FFF7FBF800287FF46CAFE2
:104A2000D4F8B80282680020002AC4F8D4027FF4C7
:104A300087AF61E700203060204631460222FFF751
:104A400021F9002070BD0000B0B50D46097804467C
:104A500011F0600118BF402914D194F89C0201386C
:104A6000022803D8A88810F0FE0F19D02046802114
:104A7000FFF7FEFC204600210025FFF7F9FC284641
:104A8000B0BD00BF2029E8D020468021FFF7F0FC10
:104A9000204600210025FFF7EBFC2846B0BD00BFF3
:104AA000C1B22046FFF7B6F810B10320B0BD00BF79
:104AB000D4F8B8028268002AF7D00020C4F8D402E3
:104AC000204629469047E9880546002908BF002D61
:104AD000E3D12046FFF7E4F80020B0BD70470000A6
:104AE00040F6BC70C2F200007047000010B50A78B2
:104AF0004B78D0F81CE802F00F04012B4FEA421C5F
:104B000018D10123A34043EA0E03C0F81C386044C7
:104B1000D0F800391B0428D4CB6800F5106009795F
:104B200004686FF3DF2343EA814144EA8252114370
:104B300016E000BF4FF48032A24042EA0E02C0F8F5
:104B40001C286044D0F8002B12040ED4CA6800F56B
:104B5000306009796FF3DF22036842EA814119432B
:104B600041F0805141F400410160002010BD00007F
:104B70000146D0F8000940F2FF729043C1F80009E5
:104B8000D1F8040840F480720020C1F8042870476E
:104B900082B00499DDF808C0012940F64051C0F206
:104BA00003016FD1826B4FF6BF7322F480328263B0
:104BB000C268CFF6BD731A40C260C2680B9B22F474
:104BC0004012012BC26003D1C26842F48012C2605D
:104BD00000220092009A01320092009A8A4200F26A
:104BE000A9800269002A1ED4009A01320092009A1C
:104BF0008A4200F29F800269002A14D4009A01328E
:104C00000092009A8A4200F295800269002A0AD432
:104C1000009A01320092009A8A4200F28B80026967
:104C2000B2F1FF3FD6DC00220092026942F001029D
:104C30000261009A01320092009A8A427AD802698F
:104C4000D2071AD0009A01320092009A8A4271D893
:104C50000269D20711D0009A01320092009A8A426A
:104C600068D80269D20708D0009A01320092009AEF
:104C70008A425FD80269D207DBD10021BCF1010F63
:104C800072D169E0C268089B42F04002C260002213
:104C90000192019A01320192019A8A4250D8026926
:104CA000002A1BD4019A01320192019A8A4247D804
:104CB0000269002A12D4019A01320192019A8A42B1
:104CC0003ED80269002A09D4019A01320192019A60
:104CD0008A4235D80269B2F1FF3FDADC0022019244
:104CE000026942F001020261019A01320192019AC5
:104CF0008A4225D80269D2071AD0019A013201925C
:104D0000019A8A421CD80269D20711D0019A013255
:104D10000192019A8A4213D80269D20708D0019AF7
:104D200001320192019A8A420AD80269D207DBD184
:104D3000002106E00321BCF1010F15D10CE000BFFA
:104D40000321826B002B14BF22F4803242F48032A4
:104D50008263BCF1010F07D1826842F006028260D3
:104D6000826842F020028260084602B0704700006C
:104D700080B54A780978012A4FEA41122AD10244C3
:104D8000D2F8003947F6000CCEF6334C02F510622B
:104D9000002B4FF0010E07D5136843F0006313603A
:104DA000136843F08043136001F00F01D0F83C38E2
:104DB0000EFA01F18B43C0F83C38D0F81C3823EAD6
:104DC0000101C0F81C18106800EA0C0100201160F5
:104DD00080BD00BF831803F53062D3F800EB47F6BF
:104DE0000003CEF6334303F1707CBEF1FF3F4FF476
:104DF000803ED9DCD0E700000146D0F8000E20F05C
:104E00000300C1F8000ED1F8040820F002020020CF
:104E1000C1F80428704700000146D0F8000E20F0C9
:104E20000300C1F8000ED1F8040840F0020200208F
:104E3000C1F80428704700002DE9F04F83B0DDF879
:104E40004C800E9F0022B8F1000FC0F80421C0F87A
:104E50000821C0F80C21C0F81021C0F81421C0F8B6
:104E60001821C0F81C21C0F82021C0F82421C0F866
:104E70002821C0F82C21C0F83021C0F83421C0F816
:104E80003821C0F83C210BD0826B00F5006B22F476
:104E900000128263826B42F40022826314E000BF3E
:104EA000D0F8042800F5006B42F00202C0F8042894
:104EB000826B42F400128263826B22F400228263CE
:104EC000866B26F4802686630026C0F8006ED0F834
:104ED0000068012FC0F8006806D1DBF80070002BD5
:104EE00018BF47F0010703E0DBF8003043F0030789
:104EF000DDF83CE0DDF8309040F64055C0F20305A7
:104F00000023C0F800780193019B01330193019BBA
:104F1000AB4249D80369002B1BD4019B0133019399
:104F2000019BAB4240D80369002B12D4019B013393
:104F30000193019BAB4237D80369002B09D4019B35
:104F400001330193019BAB422ED80369B3F1FF3FBC
:104F5000DADC002301934FF484630361019B013386
:104F60000193019BAB421FD803699B061AD5019B95
:104F700001330193019BAB4216D803699B0611D5FF
:104F8000019B01330193019BAB420DD803699B0642
:104F900008D5019B01330193019BAB4204D80369FF
:104FA0009B06DBD4002400E0012400230293029B33
:104FB00001330293029BAB4248D80369002B1BD4F8
:104FC000029B01330293029BAB423FD80369002B43
:104FD00012D4029B01330293029BAB4236D8036981
:104FE000002B09D4029B01330293029BAB422DD8C4
:104FF0000369B3F1FF3FDADC00230293102303615E
:10500000029B01330293029BAB421FD80369DB066C
:105010001DD5029B01330293029BAB4216D8036954
:10502000DB0614D5029B01330293029BAB420DD8E1
:105030000369DB060BD5029B01330293029BAB4253
:1050400004D80369DB06DBD401E000BF01244FF084
:10505000000A0029CBF810A0CBF814A0CBF81CA0B4
:1050600000F00681D0F800394FF0006707EA13130B
:105070004FF67F324E1EC0F80039C0F810A9C0F8B4
:1050800008297BD08B1E032B06F00309724600947F
:1050900004D22024B9F1000F3FD165E026F00304CB
:1050A00000234FF0904E4FF67F384FF0000C00BFBA
:1050B00000EB0C05D5F82079043C0EEAE777C5F83B
:1050C0002079C5F83039C5F82889D5F840790CF130
:1050D000800C0EEAE777C5F84079C5F85039C5F875
:1050E0004889D5F860790EEAE777C5F86079C5F8A0
:1050F0007039C5F86889D5F880790EEAE777C5F880
:105100008079C5F89039C5F88889D1D1DDF84C800F
:105110000CF12004B9F1000F26D000F510673D59BD
:105120004FF0904C0CEAE5753B193D5100244FF6C9
:105130007F3EB9F1010F1C61C3F808E014D01D6A6D
:10514000B9F1020F0CEAE5771F621C63C3F828E08F
:105150000AD01F6C4FF0904505EAE7771F640027DF
:105160001F654FF67F379F64DDF83090009C002963
:1051700096464FF67F324FF0006779D0D0F8003B6B
:10518000002E07EA1313C0F8003B4FF00003C0F8ED
:10519000103BC0F8082B6BD00239032906F0030C32
:1051A00004D22023BCF1000F3DD161E0009426F031
:1051B000030400234FF090474FF67F36002100BFD5
:1051C0004518D5F8202B043C07EAE272C5F8202BDD
:1051D000C5F8303BC5F8286BD5F8402B01F18001AC
:1051E00007EAE272C5F8402BC5F8503BC5F8486B9A
:1051F000D5F8602B07EAE272C5F8602BC5F8703B62
:10520000C5F8686BD5F8802B07EAE272C5F8802BE9
:10521000C5F8903BC5F8886BD2D1009C01F1200302
:10522000BCF1000F24D000F53062D6584FF0904703
:1052300007EAE676D118D65000264FF67F33BCF148
:10524000010F0E618B6013D00A6ABCF1020F07EAEE
:10525000E2720A620E638B620AD00A6C4FF09043CE
:1052600003EAE2720A6400220A654FF67F328A641A
:10527000DBF81010B9F1000F21F48071CBF8101099
:105280006FF08041C0F818A0416103D1816941F0FD
:1052900010018161816943F60002C8F23C021143AA
:1052A000BEF1000F816103D0816941F00801816185
:1052B000B8F1010F05D1816941F0804141F004014D
:1052C0008161204603B0BDE8F08F00000146806890
:1052D00020F0010200208A6070470000F0B54B7892
:1052E00091F800C0012B27D18C6900EB4C1E0026E1
:1052F0004FF6FF75DEF81079CFF6F876CEF2070597
:10530000002C0EF5106349D03E401E611E692E40F0
:105310001E61CE6805F10055B44284BF8E613446EB
:105320001E69254046F400261E611E693543012A88
:105330001D6141D1486926E000EB4C13D3F8100BF6
:105340006FF31200C3F8100BD3F8107B4FF6FF7009
:105350006FF3DC47C3F8107B8F69CE68002F03F52D
:10536000306318BF8E61CE611F69CEF2070047F42B
:1053700000271F6100F100501F6930403843012AA7
:10538000186103D10869002818BF58614FF0044123
:105390001868084318600020F0BD00BF07EA050444
:1053A0001C611C6944F400241C611C6904EA0605A4
:1053B0000024012A1D61BDD0DEF80019002C41F047
:1053C0000441CEF80019E6D00CF00F01012202FAD8
:1053D00001F100F63403DBE7D0F840C043F20B03E1
:1053E000C4F654739C4503D3D0F8003B002B1ED465
:1053F0000023C0F8103BD0F8103B012943F40023F0
:10540000C0F8103BD0F8103B43F01803C0F8103B35
:10541000D0F8103B43F0C043C0F8103B07D1C0F8B0
:10542000142BD0F8001B41F08021C0F8001B002095
:10543000704700004A780B78012A4FEA4312104463
:105440000ED1D0F8002922F40012C0F80029097901
:1054500001F0FE01022914D100F510600DE000BF3B
:10546000D0F8002B22F40012C0F8002B097901F0CB
:10547000FE01022905D100F53060016841F080513C
:1054800001600020704700000A784B785101012B21
:10549000084407D1D0F80019002900F5106107D59C
:1054A0000BE000BFD0F8001B002900F5306104D4E8
:1054B0001AB1086820F080400860086840F40012C3
:1054C00000200A6070470000F0B54B7891F800C0EA
:1054D000012B31D1D1F818E000EB4C14D4F810595D
:1054E000BEF1000F04F510634CD06FF312051D617F
:1054F0001D696FF3DC451D61CD681F690EEB050664
:10550000013EB6FBF5F50026C1F6F87606EAC5457C
:105510003D431D6175461E696FF3DF4535431D61CF
:105520000D79012D39D11D6925F0C0451D611D6919
:1055300045F0005530E000BF00EB4C13D3F8107B72
:105540006FF31207C3F8107BD3F8107B6FF3DC47BF
:10555000C3F8107B8D69CC68002D03F5306379D0DA
:105560002F19013FB7FBF4F7BEB27443CC6100269C
:10557000C1F6F8761D6906EAC7472F436FF3DF448B
:105580001F616EE06FF3DC451D611D6945F4002568
:105590001D611D696FF312051D61012A12D14A694F
:1055A000002A18BFC4F814290979012971D1D0F84B
:1055B0000818D4F80009C9054CBF40F0805040F0ED
:1055C000005065E000F510634FEA4C141D5945F09A
:1055D00004451D510D79012D62D1D0F80858E658C7
:1055E000ED054FF0805558BF4FF000553543002A68
:1055F000E55053D11FFA8EF2002A4FD0D51C4FF040
:10560000FF33096903EB950300F580504FEA0C3234
:10561000032BC5F381030FD3AF0827F0030400BFAA
:105620000F68043C17504F6817508F681750CF68A9
:1056300001F110011750F3D183B30F68012B1750FC
:105640002CD04F68022B175028D0896811500020A9
:10565000F0BD00BF1F696FF3DF4427431F614FF4A4
:1056600000241F69012A47EA04071F6103D10A6960
:10567000002A18BF5A61097901290AD1D0F808080F
:105680001968C0054FF0805058BF4FF000500843D4
:1056900018604FF004411868084318600020F0BDFE
:1056A000BEF1000FFAD00CF00F01012202FA01F155
:1056B00000F63403EFE7000081B0002200924A7840
:1056C0000978012A4FEA41113AD100F51062505889
:1056D000B0F1FF3F3ADC885842F2107340F00060AE
:1056E0008850885840F080408850009801300090E1
:1056F0000098984264D88858B0F1FF3F26DC0098A3
:1057000001300090009898425AD88858B0F1FF3F75
:105710001CDC0098013000900098984250D88858BE
:10572000B0F1FF3F12DC00980130009000989842E1
:1057300046D8885800284FF00000D6D43DE000BF7E
:1057400000F530625058B0F1FF3F03DD002001B09A
:10575000704700BF885842F2107340F000608850D4
:10576000885840F0804088500098013000900098A0
:10577000984225D88858B0F1FF3FE7DC0098013007
:105780000090009898421BD88858B0F1FF3FDDDCAC
:105790000098013000900098984211D88858B0F1D4
:1057A000FF3FD3DC0098013000900098984207D862
:1057B000885800284FF00000D6D401B0704700BFD1
:1057C000012001B0704700000146806840F00102EE
:1057D00000208A607047000081B040F64052C0F25D
:1057E000030200230093009B01330093009B93422C
:1057F0004AD80369002B1BD4009B01330093009B04
:10580000934241D80369002B12D4009B01330093CB
:10581000009B934238D80369002B09D4009B0133C5
:105820000093009B93422FD80369B3F1FF3FDADC6A
:105830008901002320310093016100990131009119
:105840000099914220D8016989061AD50099013141
:1058500000910099914217D80169890611D50099E4
:1058600001310091009991420ED80169890608D54D
:105870000099013100910099914205D8016989068A
:10588000DBD4002001B07047032001B07047000056
:10589000D0F8080800F0060180074FF0020058BF5A
:1058A0000F20002908BF084670470000406900F03B
:1058B00001007047D0F81818D0F81C08084080B2D2
:1058C00070470000D0F81818D0F81C080840000CE9
:1058D00070470000D0F810C8D0F8343801F00F023B
:1058E00023FA02F2D20100EB4110D2B2D0F808093B
:1058F00042EA0C010840704700EB4111D1F8081B47
:10590000D0F8140808407047416980690840704722
:1059100010B5930802F0030E2CD05A1E032A03F090
:10592000030C0FD323F003034FF480528458043B3D
:105930000C6084584C6084588C608458CC6001F1B1
:105940001001F3D1BCF1000F14D04FF480528458F1
:105950000B46BCF1010F43F8044B05D11946BEF1CB
:10596000000F0AD11EE000BF8258BCF1020F4A604E
:105970001AD10831BEF1000F14D04FF48052805874
:105980000A46BEF1010F02F8010B04BF104610BD1C
:10599000020ABEF1020F4A7004BF881C10BD000C41
:1059A00088700331084610BD4FF4805282588A60D7
:1059B0000C31BEF1000FE0D1F4E70000B0B50446B1
:1059C000C06820F0C040E06091B1012926D1E068B4
:1059D000002540F00050E0600120FBF7FBF8606913
:1059E000C00705F1010014D1312D0546F4D310E0B4
:1059F000E068002540F08040E06000BF0120FBF738
:105A0000E9F86069C00705F1010002D0312D0546B3
:105A1000F4D33238B0FA80F04009B0BD0120B0BDF7
:105A20000246D0F8000801F07F0120F4FE60C2F8C1
:105A30000008D2F8000840EA01110020C2F800185E
:105A400070470000022A02460ED145F24030CFF6E0
:105A5000277043F200530844C0F20C0398420FD25F
:105A60004FF4705002E000BF4FF41050D16821F4A1
:105A70007051D160D16801430020D160704700BFF0
:105A800041F64060CFF61B7044F240230844C0F258
:105A90000F03984202D24FF46050E7E7A1F574007B
:105AA00044F68073A0F51050C0F21203984203D25E
:105AB0004FF45050DAE700BFA1F183704DF220633C
:105AC000A0F5E740C0F21303984203D24FF44050D0
:105AD000CCE700BF4BF26060CFF6E5604EF260337A
